8=FIX.4.2|9=155|35=D|34=1|49=EQUITY-TRADER|52=20150930-14:44:03.546|56=NASDAQ|11=EQUITY-TRADER-1443624243463|21=1|38=50|40=2|44=14.5|54=1|55=AAPL|60=20150930-14:44:03.468|10=120|8=FIX.4.2|9=155|35=D|34=2|49=EQUITY-TRADER|52=20150930-14:45:01.304|56=NASDAQ|11=EQUITY-TRADER-1443624301207|21=1|38=50|40=2|44=14.5|54=1|55=AAPL|60=20150930-14:45:01.212|10=089|8=FIX.4.2|9=155|35=D|34=3|49=EQUITY-TRADER|52=20150930-14:45:41.730|56=NASDAQ|11=EQUITY-TRADER-1443624341648|21=1|38=50|40=2|44=14.5|54=1|55=AAPL|60=20150930-14:45:41.652|10=122|